{
  "abi": [
    {
      "inputs": [
        {
          "components": [
            {
              "internalType": "contract IERC20",
              "name": "sellToken",
              "type": "address"
            },
            {
              "internalType": "contract IERC20",
              "name": "buyToken",
              "type": "address"
            },
            {
              "internalType": "address",
              "name": "receiver",
              "type": "address"
            },
            {
              "internalType": "uint256",
              "name": "sellAmount",
              "type": "uint256"
            },
            {
              "internalType": "uint256",
              "name": "buyAmount",
              "type": "uint256"
            },
            {
              "internalType": "uint32",
              "name": "validTo",
              "type": "uint32"
            },
            {
              "internalType": "bytes32",
              "name": "appData",
              "type": "bytes32"
            },
            {
              "internalType": "uint256",
              "name": "feeAmount",
              "type": "uint256"
            },
            {
              "internalType": "bytes32",
              "name": "kind",
              "type": "bytes32"
            },
            {
              "internalType": "bool",
              "name": "partiallyFillable",
              "type": "bool"
            },
            {
              "internalType": "bytes32",
              "name": "sellTokenBalance",
              "type": "bytes32"
            },
            {
              "internalType": "bytes32",
              "name": "buyTokenBalance",
              "type": "bytes32"
            }
          ],
          "internalType": "struct GPv2Order.Data",
          "name": "gpv2Order",
          "type": "tuple"
        },
        {
          "components": [
            {
              "internalType": "contract IERC20",
              "name": "sellToken",
              "type": "address"
            },
            {
              "internalType": "contract IERC20",
              "name": "buyToken",
              "type": "address"
            },
            {
              "internalType": "address",
              "name": "receiver",
              "type": "address"
            },
            {
              "internalType": "uint256[]",
              "name": "sellAmount",
              "type": "uint256[]"
            },
            {
              "internalType": "uint256[]",
              "name": "buyAmount",
              "type": "uint256[]"
            },
            {
              "internalType": "uint32",
              "name": "validTo",
              "type": "uint32"
            },
            {
              "internalType": "uint256",
              "name": "feeAmount",
              "type": "uint256"
            },
            {
              "internalType": "bytes32",
              "name": "sellTokenBalance",
              "type": "bytes32"
            },
            {
              "internalType": "bytes32",
              "name": "buyTokenBalance",
              "type": "bytes32"
            }
          ],
          "internalType": "struct CurvedOrder.Data",
          "name": "curvedOrder",
          "type": "tuple"
        },
        {
          "internalType": "bytes32",
          "name": "curvedOrderSignature",
          "type": "bytes32"
        }
      ],
      "name": "generateSignature",
      "outputs": [
        {
          "internalType": "bytes",
          "name": "signature",
          "type": "bytes"
        }
      ],
      "stateMutability": "view",
      "type": "function"
    },
    {
      "inputs": [
        {
          "internalType": "bytes32",
          "name": "_hash",
          "type": "bytes32"
        },
        {
          "internalType": "bytes",
          "name": "_signature",
          "type": "bytes"
        }
      ],
      "name": "isValidSignature",
      "outputs": [
        {
          "internalType": "bytes4",
          "name": "magicValue",
          "type": "bytes4"
        }
      ],
      "stateMutability": "view",
      "type": "function"
    }
  ],
  "bytecode": {
    "object": "0x608060405234801561001057600080fd5b50610577806100206000396000f3fe608060405234801561001057600080fd5b50600436106100365760003560e01c80631626ba7e1461003b578063655fc78014610075575b600080fd5b610057610049366004610101565b630b135d3f60e11b92915050565b6040516001600160e01b031990911681526020015b60405180910390f35b6100886100833660046101bc565b610095565b60405161006c9190610255565b606060008484846040516020016100ae93929190610427565b604051602081830303815290604052905030816040516020016100d2929190610509565b6040516020818303038152906040529150509392505050565b634e487b7160e01b600052604160045260246000fd5b6000806040838503121561011457600080fd5b82359150602083013567ffffffffffffffff8082111561013357600080fd5b818501915085601f83011261014757600080fd5b813581811115610159576101596100eb565b604051601f8201601f19908116603f01168101908382118183101715610181576101816100eb565b8160405282815288602084870101111561019a57600080fd5b8260208601602083013760006020848301015280955050505050509250929050565b60008060008385036101c08112156101d357600080fd5b610180808212156101e357600080fd5b859450840135905067ffffffffffffffff81111561020057600080fd5b8401610120818703121561021357600080fd5b929592945050506101a0919091013590565b60005b83811015610240578181015183820152602001610228565b8381111561024f576000848401525b50505050565b6020815260008251806020840152610274816040850160208701610225565b601f01601f19169190910160400192915050565b80356001600160a01b038116811461029f57600080fd5b919050565b803563ffffffff8116811461029f57600080fd5b8035801515811461029f57600080fd5b6000808335601e198436030181126102df57600080fd5b830160208101925035905067ffffffffffffffff8111156102ff57600080fd5b8060051b360382131561031157600080fd5b9250929050565b81835260006001600160fb1b0383111561033157600080fd5b8260051b8083602087013760009401602001938452509192915050565b600061012061036d8461036085610288565b6001600160a01b03169052565b61037960208401610288565b6001600160a01b0316602085015261039360408401610288565b6001600160a01b031660408501526103ae60608401846102c8565b8260608701526103c18387018284610318565b925050506103d260808401846102c8565b85830360808701526103e5838284610318565b925050506103f560a084016102a4565b63ffffffff1660a085015260c0838101359085015260e080840135908501526101009283013592909301919091525090565b60006101c06104398361036088610288565b61044560208701610288565b6001600160a01b0316602084015261045f60408701610288565b6001600160a01b038116604085015250606086013560608401526080860135608084015261048f60a087016102a4565b63ffffffff1660a084015260c0868101359084015260e0808701359084015261010080870135908401526101206104c78188016102b8565b1515908401526101408681013590840152610160808701359084015261018083018190526104f78184018661034e565b915050826101a0830152949350505050565b6bffffffffffffffffffffffff198360601b16815260008251610533816014850160208701610225565b91909101601401939250505056fea2646970667358221220ede176d4a65172495cfe915539a8c5734f59a623f47d9c7cc944a7ae37e34ba664736f6c634300080f0033",
    "linkReferences": {}
  },
  "methodIdentifiers": {
    "generateSignature((address,address,address,uint256,uint256,uint32,bytes32,uint256,bytes32,bool,bytes32,bytes32),(address,address,address,uint256[],uint256[],uint32,uint256,bytes32,bytes32),bytes32)": "655fc780",
    "isValidSignature(bytes32,bytes)": "1626ba7e"
  },
  "id": 2
}