{
  "abi": [
    {
      "inputs": [
        {
          "components": [
            {
              "internalType": "contract IERC20",
              "name": "sellToken",
              "type": "address"
            },
            {
              "internalType": "contract IERC20",
              "name": "buyToken",
              "type": "address"
            },
            {
              "internalType": "address",
              "name": "receiver",
              "type": "address"
            },
            {
              "internalType": "uint256",
              "name": "sellAmount",
              "type": "uint256"
            },
            {
              "internalType": "uint256",
              "name": "buyAmount",
              "type": "uint256"
            },
            {
              "internalType": "uint32",
              "name": "validTo",
              "type": "uint32"
            },
            {
              "internalType": "bytes32",
              "name": "appData",
              "type": "bytes32"
            },
            {
              "internalType": "uint256",
              "name": "feeAmount",
              "type": "uint256"
            },
            {
              "internalType": "bytes32",
              "name": "kind",
              "type": "bytes32"
            },
            {
              "internalType": "bool",
              "name": "partiallyFillable",
              "type": "bool"
            },
            {
              "internalType": "bytes32",
              "name": "sellTokenBalance",
              "type": "bytes32"
            },
            {
              "internalType": "bytes32",
              "name": "buyTokenBalance",
              "type": "bytes32"
            }
          ],
          "internalType": "struct GPv2Order.Data",
          "name": "gpv2Order",
          "type": "tuple"
        },
        {
          "components": [
            {
              "internalType": "contract IERC20",
              "name": "sellToken",
              "type": "address"
            },
            {
              "internalType": "contract IERC20",
              "name": "buyToken",
              "type": "address"
            },
            {
              "internalType": "address",
              "name": "receiver",
              "type": "address"
            },
            {
              "internalType": "uint256[]",
              "name": "sellAmount",
              "type": "uint256[]"
            },
            {
              "internalType": "uint256[]",
              "name": "buyAmount",
              "type": "uint256[]"
            },
            {
              "internalType": "uint32",
              "name": "validTo",
              "type": "uint32"
            },
            {
              "internalType": "uint256",
              "name": "feeAmount",
              "type": "uint256"
            },
            {
              "internalType": "bytes32",
              "name": "sellTokenBalance",
              "type": "bytes32"
            },
            {
              "internalType": "bytes32",
              "name": "buyTokenBalance",
              "type": "bytes32"
            }
          ],
          "internalType": "struct CurvedOrder.Data",
          "name": "curvedOrder",
          "type": "tuple"
        },
        {
          "internalType": "bytes32",
          "name": "curvedOrderSignature",
          "type": "bytes32"
        }
      ],
      "name": "generateSignature",
      "outputs": [
        {
          "internalType": "bytes",
          "name": "signature",
          "type": "bytes"
        }
      ],
      "stateMutability": "view",
      "type": "function"
    },
    {
      "inputs": [
        {
          "internalType": "bytes32",
          "name": "_hash",
          "type": "bytes32"
        },
        {
          "internalType": "bytes",
          "name": "_signature",
          "type": "bytes"
        }
      ],
      "name": "isValidSignature",
      "outputs": [
        {
          "internalType": "bytes4",
          "name": "magicValue",
          "type": "bytes4"
        }
      ],
      "stateMutability": "view",
      "type": "function"
    }
  ],
  "bytecode": {
    "object": "0x608060405234801561001057600080fd5b50610567806100206000396000f3fe608060405234801561001057600080fd5b50600436106100365760003560e01c80631626ba7e1461003b578063655fc78014610075575b600080fd5b610057610049366004610101565b630b135d3f60e11b92915050565b6040516001600160e01b031990911681526020015b60405180910390f35b6100886100833660046101bc565b610095565b60405161006c9190610249565b606060008484846040516020016100ae93929190610417565b604051602081830303815290604052905030816040516020016100d29291906104f9565b6040516020818303038152906040529150509392505050565b634e487b7160e01b600052604160045260246000fd5b6000806040838503121561011457600080fd5b82359150602083013567ffffffffffffffff8082111561013357600080fd5b818501915085601f83011261014757600080fd5b813581811115610159576101596100eb565b604051601f8201601f19908116603f01168101908382118183101715610181576101816100eb565b8160405282815288602084870101111561019a57600080fd5b8260208601602083013760006020848301015280955050505050509250929050565b60008060008385036101c08112156101d357600080fd5b610180808212156101e357600080fd5b859450840135905067ffffffffffffffff81111561020057600080fd5b8401610120818703121561021357600080fd5b929592945050506101a0919091013590565b60005b83811015610240578181015183820152602001610228565b50506000910152565b6020815260008251806020840152610268816040850160208701610225565b601f01601f19169190910160400192915050565b80356001600160a01b038116811461029357600080fd5b919050565b803563ffffffff8116811461029357600080fd5b8035801515811461029357600080fd5b6000808335601e198436030181126102d357600080fd5b830160208101925035905067ffffffffffffffff8111156102f357600080fd5b8060051b360382131561030557600080fd5b9250929050565b81835260006001600160fb1b0383111561032557600080fd5b8260051b80836020870137939093016020019392505050565b600061012061035d846103508561027c565b6001600160a01b03169052565b6103696020840161027c565b6001600160a01b031660208501526103836040840161027c565b6001600160a01b0316604085015261039e60608401846102bc565b8260608701526103b1838701828461030c565b925050506103c260808401846102bc565b85830360808701526103d583828461030c565b925050506103e560a08401610298565b63ffffffff1660a085015260c0838101359085015260e080840135908501526101009283013592909301919091525090565b60006101c0610429836103508861027c565b6104356020870161027c565b6001600160a01b0316602084015261044f6040870161027c565b6001600160a01b038116604085015250606086013560608401526080860135608084015261047f60a08701610298565b63ffffffff1660a084015260c0868101359084015260e0808701359084015261010080870135908401526101206104b78188016102ac565b1515908401526101408681013590840152610160808701359084015261018083018190526104e78184018661033e565b915050826101a0830152949350505050565b6bffffffffffffffffffffffff198360601b16815260008251610523816014850160208701610225565b91909101601401939250505056fea26469706673582212203b67920e29196a23b4dae01ccb778a52106c17b12a98c7d949ac177d0feabd6064736f6c63430008110033",
    "linkReferences": {}
  },
  "methodIdentifiers": {
    "generateSignature((address,address,address,uint256,uint256,uint32,bytes32,uint256,bytes32,bool,bytes32,bytes32),(address,address,address,uint256[],uint256[],uint32,uint256,bytes32,bytes32),bytes32)": "655fc780",
    "isValidSignature(bytes32,bytes)": "1626ba7e"
  },
  "id": 2
}