{
  "abi": [
    {
      "inputs": [
        {
          "components": [
            {
              "internalType": "contract IERC20",
              "name": "sellToken",
              "type": "IERC20"
            },
            {
              "internalType": "contract IERC20",
              "name": "buyToken",
              "type": "IERC20"
            },
            {
              "internalType": "address",
              "name": "receiver",
              "type": "address"
            },
            {
              "internalType": "uint256",
              "name": "sellAmount",
              "type": "uint256"
            },
            {
              "internalType": "uint256",
              "name": "buyAmount",
              "type": "uint256"
            },
            {
              "internalType": "uint32",
              "name": "validTo",
              "type": "uint32"
            },
            {
              "internalType": "bytes32",
              "name": "appData",
              "type": "bytes32"
            },
            {
              "internalType": "uint256",
              "name": "feeAmount",
              "type": "uint256"
            },
            {
              "internalType": "bytes32",
              "name": "kind",
              "type": "bytes32"
            },
            {
              "internalType": "bool",
              "name": "partiallyFillable",
              "type": "bool"
            },
            {
              "internalType": "bytes32",
              "name": "sellTokenBalance",
              "type": "bytes32"
            },
            {
              "internalType": "bytes32",
              "name": "buyTokenBalance",
              "type": "bytes32"
            }
          ],
          "internalType": "struct GPv2Order.Data",
          "name": "executedOrder",
          "type": "tuple"
        },
        {
          "components": [
            {
              "internalType": "contract IERC20",
              "name": "sellToken",
              "type": "IERC20"
            },
            {
              "internalType": "contract IERC20",
              "name": "buyToken",
              "type": "IERC20"
            },
            {
              "internalType": "address",
              "name": "receiver",
              "type": "address"
            },
            {
              "internalType": "uint256[]",
              "name": "sellAmount",
              "type": "uint256[]"
            },
            {
              "internalType": "uint256[]",
              "name": "buyAmount",
              "type": "uint256[]"
            },
            {
              "internalType": "uint32",
              "name": "validTo",
              "type": "uint32"
            },
            {
              "internalType": "uint256",
              "name": "feeAmount",
              "type": "uint256"
            },
            {
              "internalType": "bytes32",
              "name": "sellTokenBalance",
              "type": "bytes32"
            },
            {
              "internalType": "bytes32",
              "name": "buyTokenBalance",
              "type": "bytes32"
            }
          ],
          "internalType": "struct CurvedOrder.Data",
          "name": "curvedOrder",
          "type": "tuple"
        }
      ],
      "name": "executionAboveCurve",
      "outputs": [
        {
          "internalType": "bool",
          "name": "aboveCurve",
          "type": "bool"
        }
      ],
      "stateMutability": "pure",
      "type": "function"
    },
    {
      "inputs": [
        {
          "internalType": "uint256[]",
          "name": "arr",
          "type": "uint256[]"
        },
        {
          "internalType": "uint256",
          "name": "tgt",
          "type": "uint256"
        }
      ],
      "name": "findMinIndexGT",
      "outputs": [
        {
          "internalType": "uint256",
          "name": "index",
          "type": "uint256"
        }
      ],
      "stateMutability": "pure",
      "type": "function"
    },
    {
      "inputs": [
        {
          "internalType": "uint256[2]",
          "name": "executedPoint",
          "type": "uint256[2]"
        },
        {
          "internalType": "uint256[2]",
          "name": "leftBreakpoint",
          "type": "uint256[2]"
        },
        {
          "internalType": "uint256[2]",
          "name": "rightBreakpoint",
          "type": "uint256[2]"
        }
      ],
      "name": "pointAboveLineSegment",
      "outputs": [
        {
          "internalType": "bool",
          "name": "",
          "type": "bool"
        }
      ],
      "stateMutability": "pure",
      "type": "function"
    }
  ],
  "bytecode": {
    "object": "0x6105b861003a600b82828239805160001a60731461002d57634e487b7160e01b600052600060045260246000fd5b30600052607381538281f3fe730000000000000000000000000000000000000000301460806040526004361061004b5760003560e01c8063410148e9146100505780638b37f3d314610078578063ea02e2f214610099575b600080fd5b61006361005e36600461039b565b6100ac565b60405190151581526020015b60405180910390f35b61008b6100863660046103e1565b61012b565b60405190815260200161006f565b6100636100a736600461045c565b6101cf565b6020808301519084015160009111156100c757506000610124565b602080840151908301516100db91906104e8565b835185516100e991906104e8565b6100f39190610501565b6020808501519086015161010791906104e8565b8451845161011591906104e8565b61011f9190610501565b101590505b9392505050565b600080805b84811015610175578386868381811061014b5761014b6104bc565b90506020020135106101635780925060019150610175565b8061016d81610518565b915050610130565b50806101c75760405162461bcd60e51b815260206004820152601d60248201527f6578656375746564206f726465722073697a6520746f6f206c61726765000000604482015260640160405180910390fd5b509392505050565b6000806101ec6101e26060850185610531565b866060013561012b565b90506000604051806040016040528085806060019061020b9190610531565b8581811061021b5761021b6104bc565b9050602002013581526020018580608001906102379190610531565b85818110610247576102476104bc565b90506020020135815250905060006040518060400160405280600081526020016000815250905060008311156102ec57604080518082019091528061028f6060880188610531565b61029a6001886104e8565b8181106102a9576102a96104bc565b9050602002013581526020018680608001906102c59190610531565b6102d06001886104e8565b8181106102df576102df6104bc565b9050602002013581525090505b6040805180820190915260608701358152608087013560208201526103128183856100ac565b979650505050505050565b600082601f83011261032e57600080fd5b6040516040810181811067ffffffffffffffff8211171561035f57634e487b7160e01b600052604160045260246000fd5b806040525080604084018581111561037657600080fd5b845b81811015610390578035835260209283019201610378565b509195945050505050565b600080600060c084860312156103b057600080fd5b6103ba858561031d565b92506103c9856040860161031d565b91506103d8856080860161031d565b90509250925092565b6000806000604084860312156103f657600080fd5b833567ffffffffffffffff8082111561040e57600080fd5b818601915086601f83011261042257600080fd5b81358181111561043157600080fd5b8760208260051b850101111561044657600080fd5b6020928301989097509590910135949350505050565b6000808284036101a081121561047157600080fd5b6101808082121561048157600080fd5b849350830135905067ffffffffffffffff81111561049e57600080fd5b830161012081860312156104b157600080fd5b809150509250929050565b634e487b7160e01b600052603260045260246000fd5b634e487b7160e01b600052601160045260246000fd5b818103818111156104fb576104fb6104d2565b92915050565b80820281158282048414176104fb576104fb6104d2565b60006001820161052a5761052a6104d2565b5060010190565b6000808335601e1984360301811261054857600080fd5b83018035915067ffffffffffffffff82111561056357600080fd5b6020019150600581901b360382131561057b57600080fd5b925092905056fea2646970667358221220a31ecd9c83cc5e8000bd7281cd7b96844348b976656319b6eaf25780945ae36364736f6c63430008110033",
    "linkReferences": {}
  },
  "methodIdentifiers": {
    "executionAboveCurve(GPv2Order.Data,CurvedOrder.Data)": "ea02e2f2",
    "findMinIndexGT(uint256[],uint256)": "8b37f3d3",
    "pointAboveLineSegment(uint256[2],uint256[2],uint256[2])": "410148e9"
  },
  "id": 5
}